{"abi":[{"type":"constructor","inputs":[{"name":"initialOwner","type":"address","internalType":"address"},{"name":"_feeVault","type":"address","internalType":"address"},{"name":"_platformFeeBps","type":"uint16","internalType":"uint16"}],"stateMutability":"nonpayable"},{"type":"function","name":"MAX_PLATFORM_FEE_BPS","inputs":[],"outputs":[{"name":"","type":"uint16","internalType":"uint16"}],"stateMutability":"view"},{"type":"function","name":"allowToken","inputs":[{"name":"token","type":"address","internalType":"address"},{"name":"feeBpsOverride","type":"uint16","internalType":"uint16"}],"outputs":[],"stateMutability":"nonpayable"},{"type":"function","name":"cancelProject","inputs":[{"name":"projectId","type":"uint256","internalType":"uint256"}],"outputs":[],"stateMutability":"nonpayable"},{"type":"function","name":"computeClaimable","inputs":[{"name":"projectId","type":"uint256","internalType":"uint256"}],"outputs":[{"name":"","type":"uint256","internalType":"uint256"}],"stateMutability":"view"},{"type":"function","name":"createProject","inputs":[{"name":"token","type":"address","internalType":"address"},{"name":"title","type":"string","internalType":"string"},{"name":"descriptionURI","type":"string","internalType":"string"},{"name":"goal","type":"uint256","internalType":"uint256"},{"name":"duration","type":"uint256","internalType":"uint256"}],"outputs":[{"name":"projectId","type":"uint256","internalType":"uint256"}],"stateMutability":"nonpayable"},{"type":"function","name":"feeVault","inputs":[],"outputs":[{"name":"","type":"address","internalType":"address"}],"stateMutability":"view"},{"type":"function","name":"fundProject","inputs":[{"name":"projectId","type":"uint256","internalType":"uint256"},{"name":"amount","type":"uint256","internalType":"uint256"}],"outputs":[],"stateMutability":"nonpayable"},{"type":"function","name":"getContribution","inputs":[{"name":"projectId","type":"uint256","internalType":"uint256"},{"name":"backer","type":"address","internalType":"address"}],"outputs":[{"name":"","type":"tuple","internalType":"struct FairFund.Contribution","components":[{"name":"amount","type":"uint256","internalType":"uint256"},{"name":"refunded","type":"uint256","internalType":"uint256"}]}],"stateMutability":"view"},{"type":"function","name":"getProject","inputs":[{"name":"projectId","type":"uint256","internalType":"uint256"}],"outputs":[{"name":"","type":"tuple","internalType":"struct FairFund.Project","components":[{"name":"creator","type":"address","internalType":"address"},{"name":"tokenAddress","type":"address","internalType":"address"},{"name":"title","type":"string","internalType":"string"},{"name":"descriptionURI","type":"string","internalType":"string"},{"name":"goal","type":"uint256","internalType":"uint256"},{"name":"deadline","type":"uint256","internalType":"uint256"},{"name":"totalRaised","type":"uint256","internalType":"uint256"},{"name":"totalRefunded","type":"uint256","internalType":"uint256"},{"name":"withdrawn","type":"bool","internalType":"bool"},{"name":"cancelled","type":"bool","internalType":"bool"},{"name":"pausedByCreator","type":"bool","internalType":"bool"}]}],"stateMutability":"view"},{"type":"function","name":"getProjects","inputs":[{"name":"offset","type":"uint256","internalType":"uint256"},{"name":"limit","type":"uint256","internalType":"uint256"}],"outputs":[{"name":"results","type":"tuple[]","internalType":"struct FairFund.Project[]","components":[{"name":"creator","type":"address","internalType":"address"},{"name":"tokenAddress","type":"address","internalType":"address"},{"name":"title","type":"string","internalType":"string"},{"name":"descriptionURI","type":"string","internalType":"string"},{"name":"goal","type":"uint256","internalType":"uint256"},{"name":"deadline","type":"uint256","internalType":"uint256"},{"name":"totalRaised","type":"uint256","internalType":"uint256"},{"name":"totalRefunded","type":"uint256","internalType":"uint256"},{"name":"withdrawn","type":"bool","internalType":"bool"},{"name":"cancelled","type":"bool","internalType":"bool"},{"name":"pausedByCreator","type":"bool","internalType":"bool"}]}],"stateMutability":"view"},{"type":"function","name":"owner","inputs":[],"outputs":[{"name":"","type":"address","internalType":"address"}],"stateMutability":"view"},{"type":"function","name":"pause","inputs":[],"outputs":[],"stateMutability":"nonpayable"},{"type":"function","name":"paused","inputs":[],"outputs":[{"name":"","type":"bool","internalType":"bool"}],"stateMutability":"view"},{"type":"function","name":"platformFeeBps","inputs":[],"outputs":[{"name":"","type":"uint16","internalType":"uint16"}],"stateMutability":"view"},{"type":"function","name":"projectCount","inputs":[],"outputs":[{"name":"","type":"uint256","internalType":"uint256"}],"stateMutability":"view"},{"type":"function","name":"refund","inputs":[{"name":"projectId","type":"uint256","internalType":"uint256"}],"outputs":[],"stateMutability":"nonpayable"},{"type":"function","name":"removeToken","inputs":[{"name":"token","type":"address","internalType":"address"}],"outputs":[],"stateMutability":"nonpayable"},{"type":"function","name":"renounceOwnership","inputs":[],"outputs":[],"stateMutability":"nonpayable"},{"type":"function","name":"setPlatformFee","inputs":[{"name":"newFeeBps","type":"uint16","internalType":"uint16"}],"outputs":[],"stateMutability":"nonpayable"},{"type":"function","name":"toggleProjectPause","inputs":[{"name":"projectId","type":"uint256","internalType":"uint256"},{"name":"pauseProject","type":"bool","internalType":"bool"}],"outputs":[],"stateMutability":"nonpayable"},{"type":"function","name":"tokenConfigs","inputs":[{"name":"","type":"address","internalType":"address"}],"outputs":[{"name":"allowed","type":"bool","internalType":"bool"},{"name":"feeBpsOverride","type":"uint16","internalType":"uint16"}],"stateMutability":"view"},{"type":"function","name":"transferOwnership","inputs":[{"name":"newOwner","type":"address","internalType":"address"}],"outputs":[],"stateMutability":"nonpayable"},{"type":"function","name":"unpause","inputs":[],"outputs":[],"stateMutability":"nonpayable"},{"type":"function","name":"withdrawFunds","inputs":[{"name":"projectId","type":"uint256","internalType":"uint256"}],"outputs":[],"stateMutability":"nonpayable"},{"type":"event","name":"ContributionAdded","inputs":[{"name":"id","type":"uint256","indexed":true,"internalType":"uint256"},{"name":"backer","type":"address","indexed":true,"internalType":"address"},{"name":"amount","type":"uint256","indexed":false,"internalType":"uint256"}],"anonymous":false},{"type":"event","name":"FeesWithdrawn","inputs":[{"name":"vault","type":"address","indexed":true,"internalType":"address"},{"name":"amount","type":"uint256","indexed":false,"internalType":"uint256"}],"anonymous":false},{"type":"event","name":"FundsWithdrawn","inputs":[{"name":"id","type":"uint256","indexed":true,"internalType":"uint256"},{"name":"creator","type":"address","indexed":true,"internalType":"address"},{"name":"amount","type":"uint256","indexed":false,"internalType":"uint256"},{"name":"fee","type":"uint256","indexed":false,"internalType":"uint256"}],"anonymous":false},{"type":"event","name":"OwnershipTransferred","inputs":[{"name":"previousOwner","type":"address","indexed":true,"internalType":"address"},{"name":"newOwner","type":"address","indexed":true,"internalType":"address"}],"anonymous":false},{"type":"event","name":"Paused","inputs":[{"name":"account","type":"address","indexed":false,"internalType":"address"}],"anonymous":false},{"type":"event","name":"PlatformFeeUpdated","inputs":[{"name":"newFee","type":"uint16","indexed":false,"internalType":"uint16"}],"anonymous":false},{"type":"event","name":"ProjectCancelled","inputs":[{"name":"id","type":"uint256","indexed":true,"internalType":"uint256"}],"anonymous":false},{"type":"event","name":"ProjectCreated","inputs":[{"name":"id","type":"uint256","indexed":true,"internalType":"uint256"},{"name":"creator","type":"address","indexed":true,"internalType":"address"},{"name":"token","type":"address","indexed":true,"internalType":"address"},{"name":"goal","type":"uint256","indexed":false,"internalType":"uint256"},{"name":"deadline","type":"uint256","indexed":false,"internalType":"uint256"}],"anonymous":false},{"type":"event","name":"ProjectPaused","inputs":[{"name":"id","type":"uint256","indexed":true,"internalType":"uint256"}],"anonymous":false},{"type":"event","name":"ProjectResumed","inputs":[{"name":"id","type":"uint256","indexed":true,"internalType":"uint256"}],"anonymous":false},{"type":"event","name":"RefundProcessed","inputs":[{"name":"id","type":"uint256","indexed":true,"internalType":"uint256"},{"name":"backer","type":"address","indexed":true,"internalType":"address"},{"name":"amount","type":"uint256","indexed":false,"internalType":"uint256"}],"anonymous":false},{"type":"event","name":"TokenAllowed","inputs":[{"name":"token","type":"address","indexed":true,"internalType":"address"},{"name":"feeBpsOverride","type":"uint16","indexed":false,"internalType":"uint16"}],"anonymous":false},{"type":"event","name":"TokenRemoved","inputs":[{"name":"token","type":"address","indexed":true,"internalType":"address"}],"anonymous":false},{"type":"event","name":"Unpaused","inputs":[{"name":"account","type":"address","indexed":false,"internalType":"address"}],"anonymous":false},{"type":"error","name":"AddressEmptyCode","inputs":[{"name":"target","type":"address","internalType":"address"}]},{"type":"error","name":"AddressInsufficientBalance","inputs":[{"name":"account","type":"address","internalType":"address"}]},{"type":"error","name":"AlreadyRefunded","inputs":[{"name":"backer","type":"address","internalType":"address"},{"name":"id","type":"uint256","internalType":"uint256"}]},{"type":"error","name":"AlreadyWithdrawn","inputs":[{"name":"id","type":"uint256","internalType":"uint256"}]},{"type":"error","name":"ContributionZero","inputs":[]},{"type":"error","name":"DeadlineReached","inputs":[{"name":"deadline","type":"uint256","internalType":"uint256"}]},{"type":"error","name":"EnforcedPause","inputs":[]},{"type":"error","name":"ExpectedPause","inputs":[]},{"type":"error","name":"FailedInnerCall","inputs":[]},{"type":"error","name":"FeeTooHigh","inputs":[{"name":"feeBps","type":"uint16","internalType":"uint16"}]},{"type":"error","name":"GoalNotReached","inputs":[{"name":"raised","type":"uint256","internalType":"uint256"},{"name":"goal","type":"uint256","internalType":"uint256"}]},{"type":"error","name":"InvalidDeadline","inputs":[{"name":"deadline","type":"uint256","internalType":"uint256"},{"name":"minDeadline","type":"uint256","internalType":"uint256"}]},{"type":"error","name":"InvalidGoal","inputs":[{"name":"goal","type":"uint256","internalType":"uint256"}]},{"type":"error","name":"NoContribution","inputs":[{"name":"backer","type":"address","internalType":"address"}]},{"type":"error","name":"OwnableInvalidOwner","inputs":[{"name":"owner","type":"address","internalType":"address"}]},{"type":"error","name":"OwnableUnauthorizedAccount","inputs":[{"name":"account","type":"address","internalType":"address"}]},{"type":"error","name":"PlatformFeeVaultZero","inputs":[]},{"type":"error","name":"ProjectAlreadyCompleted","inputs":[{"name":"id","type":"uint256","internalType":"uint256"}]},{"type":"error","name":"ProjectIsCancelled","inputs":[{"name":"id","type":"uint256","internalType":"uint256"}]},{"type":"error","name":"ProjectIsPaused","inputs":[{"name":"id","type":"uint256","internalType":"uint256"}]},{"type":"error","name":"ProjectNotActive","inputs":[{"name":"id","type":"uint256","internalType":"uint256"}]},{"type":"error","name":"ProjectNotFound","inputs":[{"name":"id","type":"uint256","internalType":"uint256"}]},{"type":"error","name":"ReentrancyGuardReentrantCall","inputs":[]},{"type":"error","name":"SafeERC20FailedOperation","inputs":[{"name":"token","type":"address","internalType":"address"}]},{"type":"error","name":"TokenAlreadyAllowed","inputs":[{"name":"token","type":"address","internalType":"address"}]},{"type":"error","name":"TokenNotAllowed","inputs":[{"name":"token","type":"address","internalType":"address"}]},{"type":"error","name":"Unauthorized","inputs":[{"name":"caller","type":"address","internalType":"address"}]}],"bytecode":{"object":"0x60a06040523480156200001157600080fd5b50604051620024d2380380620024d2833981016040819052620000349162000174565b826001600160a01b0381166200006557604051631e4fbdf760e01b8152600060048201526024015b60405180910390fd5b620000708162000107565b50600180556002805460ff191690556001600160a01b038216620000a7576040516367b38aa960e01b815260040160405180910390fd5b6103e861ffff82161115620000d657604051638ea70c0760e01b815261ffff821660048201526024016200005c565b6001600160a01b039091166080526002805461ffff9092166101000262ffff001990921691909117905550620001c8565b600080546001600160a01b038381166001600160a01b0319831681178455604051919092169283917f8be0079c531659141344cd1fd0a4f28419497f9722a3daafe3b4186f6b6457e09190a35050565b80516001600160a01b03811681146200016f57600080fd5b919050565b6000806000606084860312156200018a57600080fd5b620001958462000157565b9250620001a56020850162000157565b9150604084015161ffff81168114620001bd57600080fd5b809150509250925092565b6080516122e0620001f2600039600081816102680152818161088701526108ae01526122e06000f3fe608060405234801561001057600080fd5b50600436106101585760003560e01c80635cbc742c116100c35780638da5cb5b1161007c5780638da5cb5b1461030a578063a84ce2b51461031b578063e081dbf91461033b578063f0f3f2c814610369578063f2fde38b14610389578063f60eed841461039c57600080fd5b80635cbc742c146102b85780635d43fa45146102cb5780635fa7b584146102de578063715018a6146102f15780638456cb59146102f95780638d01513c1461030157600080fd5b80632494114711610115578063249411471461022c578063278ecde11461023f57806336fbad26146102525780633f4ba83a1461025b578063478222c2146102635780635c975abb146102a257600080fd5b806301cda5a41461015d5780630da17ee214610172578063155dd5ee1461019857806318873b6f146101ab5780631b69dc5f146101be57806322dcd13e14610206575b600080fd5b61017061016b366004611cdf565b6103af565b005b610185610180366004611d01565b610590565b6040519081526020015b60405180910390f35b6101706101a6366004611d01565b610680565b6101706101b9366004611d48565b610986565b6101ec6101cc366004611d7b565b60066020526000908152604090205460ff811690610100900461ffff1682565b60408051921515835261ffff90911660208301520161018f565b60025461021990610100900461ffff1681565b60405161ffff909116815260200161018f565b61017061023a366004611d01565b610ac4565b61017061024d366004611d01565b610bbb565b61018560035481565b610170610d7a565b61028a7f000000000000000000000000000000000000000000000000000000000000000081565b6040516001600160a01b03909116815260200161018f565b60025460ff16604051901515815260200161018f565b6101706102c6366004611d96565b610d8c565b6101856102d9366004611dfa565b610e13565b6101706102ec366004611d7b565b61110f565b6101706111a8565b6101706111ba565b6102196103e881565b6000546001600160a01b031661028a565b61032e610329366004611cdf565b6111ca565b60405161018f9190611f9b565b61034e610349366004611fff565b6114ab565b6040805182518152602092830151928101929092520161018f565b61037c610377366004611d01565b611539565b60405161018f9190612022565b610170610397366004611d7b565b61173b565b6101706103aa366004612043565b611776565b6103b76118b3565b6103bf6118dd565b60008281526004602052604090205482906001600160a01b03166103fe5760405163a89b369d60e01b8152600481018290526024015b60405180910390fd5b8160000361041f57604051637c20b90360e11b815260040160405180910390fd5b60008381526004602052604090206008810154610100900460ff161561045b5760405163aa554e4b60e01b8152600481018590526024016103f5565b600881015462010000900460ff161561048a57604051630af6767760e41b8152600481018590526024016103f5565b806005015442106104b657806005015460405163070b57d960e41b81526004016103f591815260200190565b80600401548160060154106104e15760405163a56005fb60e01b8152600481018590526024016103f5565b60018101546001600160a01b03166104fb81333087611901565b60008581526005602090815260408083203384529091528120805490918691839190610528908490612089565b92505081905550848360060160008282546105439190612089565b9091555050604051858152339087907f75aecd8d57cb4b1b263271bddb4961b993924dd466e6003c254832572d8a57e19060200160405180910390a35050505061058c60018055565b5050565b60008181526004602052604081205482906001600160a01b03166105ca5760405163a89b369d60e01b8152600481018290526024016103f5565b600083815260046020819052604090912090810154600682015410156105f457600092505061067a565b60008160070154826006015461060a919061209c565b60018301546001600160a01b031660009081526006602052604081205491925061010090910461ffff169081900361064a5750600254610100900461ffff165b600061271061065d61ffff8416856120af565b61066791906120c6565b9050610673818461209c565b9550505050505b50919050565b6106886118b3565b600081815260046020526040902080548291906001600160a01b03166106c45760405163a89b369d60e01b8152600481018390526024016103f5565b80546001600160a01b031633146106fc57335b60405163472511eb60e11b81526001600160a01b0390911660048201526024016103f5565b60008381526004602052604090206008810154610100900460ff16156107385760405163aa554e4b60e01b8152600481018590526024016103f5565b600881015460ff1615610761576040516354225c2b60e01b8152600481018590526024016103f5565b80600401548160060154101561079d576006810154600480830154604051630a7c08cd60e21b81526103f5939201918252602082015260400190565b6000816007015482600601546107b3919061209c565b9050806000036107e9576006820154600480840154604051630a7c08cd60e21b81526103f5939201918252602082015260400190565b60088201805460ff191660019081179091558201546001600160a01b031660009081526006602052604081205461ffff61010090910416908190036108365750600254610100900461ffff165b600061271061084961ffff8416856120af565b61085391906120c6565b90506000610861828561209c565b60018601549091506001600160a01b03168215610910576108ac6001600160a01b0382167f00000000000000000000000000000000000000000000000000000000000000008561196e565b7f00000000000000000000000000000000000000000000000000000000000000006001600160a01b03167fc0819c13be868895eb93e40eaceb96de976442fa1d404e5c55f14bb65a8c489a8460405161090791815260200190565b60405180910390a25b8554610929906001600160a01b0383811691168461196e565b855460408051848152602081018690526001600160a01b03909216918b917f3dbb1a26f29aef1264c12ca1285deb60cca5666d8b17100c7ea1602c0a4014f6910160405180910390a3505050505050505061098360018055565b50565b61098e6119a4565b6001600160a01b0382166109c05760405163094403b760e41b81526001600160a01b03831660048201526024016103f5565b6001600160a01b0382166000908152600660205260409020805460ff1615610a06576040516309ba754d60e41b81526001600160a01b03841660048201526024016103f5565b6103e861ffff83161115610a3357604051638ea70c0760e01b815261ffff831660048201526024016103f5565b6040805180820182526001815261ffff84811660208084018281526001600160a01b03891660008181526006845287902095518654925162ffffff1990931690151562ffff001916176101009290951691909102939093179093559251928352917fa5d5f6d997c54794aeef5727ed016c141f7734b864a6f4b0e6b78f8e12f96406910160405180910390a2505050565b600081815260046020526040902080548291906001600160a01b0316610b005760405163a89b369d60e01b8152600481018390526024016103f5565b80546001600160a01b03163314610b1757336106d7565b60008381526004602052604090206008810154610100900460ff1615610b535760405163aa554e4b60e01b8152600481018590526024016103f5565b600681015415610b795760405163a56005fb60e01b8152600481018590526024016103f5565b60088101805461ff00191661010017905560405184907fe3805ed669490875ae87c5c8b1ad6ecca0e5e67305a833926d0d4317c4822fc090600090a250505050565b610bc36118b3565b60008181526004602052604090205481906001600160a01b0316610bfd5760405163a89b369d60e01b8152600481018290526024016103f5565b6000828152600460205260409020600881015460ff1615610c345760405163a56005fb60e01b8152600481018490526024016103f5565b6000838152600560209081526040808320338452909152812080549091819003610c73576040516355561ba760e01b81523360048201526024016103f5565b600182015415610c9f57604051630442062b60e41b8152336004820152602481018690526044016103f5565b600083600501544210158015610cbc575083600401548460060154105b6008850154909150610100900460ff1681158015610cd8575080155b15610cf9576040516328e5cee560e21b8152600481018890526024016103f5565b82846001018190555082856007016000828254610d169190612089565b90915550506001850154610d34906001600160a01b0316338561196e565b604051838152339088907f79ff6a60b3e21b3630b207e2a7b0b50b69b197d3d7ca776108ed2afb8fbac8dc9060200160405180910390a350505050505061098360018055565b610d826119a4565b610d8a6119d1565b565b610d946119a4565b6103e861ffff82161115610dc157604051638ea70c0760e01b815261ffff821660048201526024016103f5565b6002805462ffff00191661010061ffff8416908102919091179091556040519081527f8043734007c449f33c5ec8cb55f80415b9bed289de65701af55e6be91da1e7a19060200160405180910390a150565b6000610e1d6118dd565b6001600160a01b03881660009081526006602090815260409182902082518084019093525460ff8116151580845261010090910461ffff1691830191909152610e845760405163094403b760e41b81526001600160a01b038a1660048201526024016103f5565b83600003610ea8576040516355d032ab60e11b8152600481018590526024016103f5565b610e1080841015610ed65760405163442400cf60e11b815260048101859052602481018290526044016103f5565b600360008154610ee5906120e8565b918290555092506000610ef88542612089565b9050604051806101600160405280610f0d3390565b6001600160a01b031681526020018c6001600160a01b031681526020018b8b8080601f016020809104026020016040519081016040528093929190818152602001838380828437600092019190915250505090825250604080516020601f8c018190048102820181019092528a815291810191908b908b9081908401838280828437600092018290525093855250505060208083018a90526040808401869052606084018390526080840183905260a0840183905260c0840183905260e09093018290528782526004815290829020835181546001600160a01b03199081166001600160a01b0392831617835592850151600183018054909416911617909155908201516002820190611020908261219b565b5060608201516003820190611035908261219b565b506080820151600482015560a0820151600582015560c0820151600682015560e0820151600782015561010080830151600890920180546101208501516101409095015161ffff1990911693151561ff001916939093179315159091029290921762ff0000191662010000911515919091021790556001600160a01b038b16336001600160a01b0316857f022cbdd9511184d551c50ef4eb9f6cb10fd9d48ed05447898fc9aef4b50a005389856040516110f9929190918252602082015260400190565b60405180910390a4505050979650505050505050565b6111176119a4565b6001600160a01b0381166000908152600660205260409020805460ff1661115c5760405163094403b760e41b81526001600160a01b03831660048201526024016103f5565b6001600160a01b038216600081815260066020526040808220805462ffffff19169055517f4c910b69fe65a61f7531b9c5042b2329ca7179c77290aa7e2eb3afa3c8511fd39190a25050565b6111b06119a4565b610d8a6000611a23565b6111c26119a4565b610d8a611a73565b6060600354831015806111db575081155b15611219576040805160008082526020820190925290611211565b6111fe611c6d565b8152602001906001900390816111f65790505b5090506114a5565b60006112258385612089565b905060035481111561123657506003545b6000611242858361209c565b90508067ffffffffffffffff81111561125d5761125d612101565b60405190808252806020026020018201604052801561129657816020015b611283611c6d565b81526020019060019003908161127b5790505b5092506000855b838110156114a057600460006112b4836001612089565b8152602080820192909252604090810160002081516101608101835281546001600160a01b03908116825260018301541693810193909352600281018054919284019161130090612117565b80601f016020809104026020016040519081016040528092919081815260200182805461132c90612117565b80156113795780601f1061134e57610100808354040283529160200191611379565b820191906000526020600020905b81548152906001019060200180831161135c57829003601f168201915b5050505050815260200160038201805461139290612117565b80601f01602080910402602001604051908101604052809291908181526020018280546113be90612117565b801561140b5780601f106113e05761010080835404028352916020019161140b565b820191906000526020600020905b8154815290600101906020018083116113ee57829003601f168201915b50505091835250506004820154602082015260058201546040820152600682015460608201526007820154608082015260089091015460ff808216151560a084015261010082048116151560c08401526201000090910416151560e090910152855186908490811061147f5761147f61225b565b60200260200101819052508180611495906120e8565b92505060010161129d565b505050505b92915050565b604080518082019091526000808252602082015260008381526004602052604090205483906001600160a01b03166114f95760405163a89b369d60e01b8152600481018290526024016103f5565b60008481526005602090815260408083206001600160a01b0387168452825291829020825180840190935280548352600101549082015291505092915050565b611541611c6d565b60008281526004602052604090205482906001600160a01b031661157b5760405163a89b369d60e01b8152600481018290526024016103f5565b60008381526004602090815260409182902082516101608101845281546001600160a01b0390811682526001830154169281019290925260028101805492939192918401916115c990612117565b80601f01602080910402602001604051908101604052809291908181526020018280546115f590612117565b80156116425780601f1061161757610100808354040283529160200191611642565b820191906000526020600020905b81548152906001019060200180831161162557829003601f168201915b5050505050815260200160038201805461165b90612117565b80601f016020809104026020016040519081016040528092919081815260200182805461168790612117565b80156116d45780601f106116a9576101008083540402835291602001916116d4565b820191906000526020600020905b8154815290600101906020018083116116b757829003601f168201915b50505091835250506004820154602082015260058201546040820152600682015460608201526007820154608082015260089091015460ff808216151560a084015261010082048116151560c08401526201000090910416151560e0909101529392505050565b6117436119a4565b6001600160a01b03811661176d57604051631e4fbdf760e01b8152600060048201526024016103f5565b61098381611a23565b600082815260046020526040902080548391906001600160a01b03166117b25760405163a89b369d60e01b8152600481018390526024016103f5565b80546001600160a01b031633146117c957336106d7565b60008481526004602052604090206008810154610100900460ff16156118055760405163aa554e4b60e01b8152600481018690526024016103f5565b600881015460ff161561182e5760405163a56005fb60e01b8152600481018690526024016103f5565b60088101805485158015620100000262ff000019909216919091179091556118805760405185907f9f505f325627bdd7f5a6dd8bcceecdc48a989f647561427d61d35b7a50703f7990600090a26118ac565b60405185907f8c936416fd11c0291d9c7f69aad7e8847c5228b15a3969a1ac6a1c7bf394cd7590600090a25b5050505050565b6002600154036118d657604051633ee5aeb560e01b815260040160405180910390fd5b6002600155565b60025460ff1615610d8a5760405163d93c066560e01b815260040160405180910390fd5b6040516001600160a01b0384811660248301528381166044830152606482018390526119689186918216906323b872dd906084015b604051602081830303815290604052915060e01b6020820180516001600160e01b038381831617835250505050611ab0565b50505050565b6040516001600160a01b0383811660248301526044820183905261199f91859182169063a9059cbb90606401611936565b505050565b6000546001600160a01b03163314610d8a5760405163118cdaa760e01b81523360048201526024016103f5565b6119d9611b13565b6002805460ff191690557f5db9ee0a495bf2e6ff9c91a7834c1ba4fdd244a5e8aa4e537bd38aeae4b073aa335b6040516001600160a01b03909116815260200160405180910390a1565b600080546001600160a01b038381166001600160a01b0319831681178455604051919092169283917f8be0079c531659141344cd1fd0a4f28419497f9722a3daafe3b4186f6b6457e09190a35050565b611a7b6118dd565b6002805460ff191660011790557f62e78cea01bee320cd4e420270b5ea74000d11b0c9f74754ebdbfc544b05a258611a063390565b6000611ac56001600160a01b03841683611b36565b90508051600014158015611aea575080806020019051810190611ae89190612271565b155b1561199f57604051635274afe760e01b81526001600160a01b03841660048201526024016103f5565b60025460ff16610d8a57604051638dfc202b60e01b815260040160405180910390fd5b6060611b4483836000611b4b565b9392505050565b606081471015611b705760405163cd78605960e01b81523060048201526024016103f5565b600080856001600160a01b03168486604051611b8c919061228e565b60006040518083038185875af1925050503d8060008114611bc9576040519150601f19603f3d011682016040523d82523d6000602084013e611bce565b606091505b5091509150611bde868383611be8565b9695505050505050565b606082611bfd57611bf882611c44565b611b44565b8151158015611c1457506001600160a01b0384163b155b15611c3d57604051639996b31560e01b81526001600160a01b03851660048201526024016103f5565b5080611b44565b805115611c545780518082602001fd5b604051630a12f52160e11b815260040160405180910390fd5b60405180610160016040528060006001600160a01b0316815260200160006001600160a01b031681526020016060815260200160608152602001600081526020016000815260200160008152602001600081526020016000151581526020016000151581526020016000151581525090565b60008060408385031215611cf257600080fd5b50508035926020909101359150565b600060208284031215611d1357600080fd5b5035919050565b80356001600160a01b0381168114611d3157600080fd5b919050565b803561ffff81168114611d3157600080fd5b60008060408385031215611d5b57600080fd5b611d6483611d1a565b9150611d7260208401611d36565b90509250929050565b600060208284031215611d8d57600080fd5b611b4482611d1a565b600060208284031215611da857600080fd5b611b4482611d36565b60008083601f840112611dc357600080fd5b50813567ffffffffffffffff811115611ddb57600080fd5b602083019150836020828501011115611df357600080fd5b9250929050565b600080600080600080600060a0888a031215611e1557600080fd5b611e1e88611d1a565b9650602088013567ffffffffffffffff80821115611e3b57600080fd5b611e478b838c01611db1565b909850965060408a0135915080821115611e6057600080fd5b50611e6d8a828b01611db1565b989b979a5095989597966060870135966080013595509350505050565b60005b83811015611ea5578181015183820152602001611e8d565b50506000910152565b60008151808452611ec6816020860160208601611e8a565b601f01601f19169290920160200192915050565b80516001600160a01b0316825260006101606020830151611f0660208601826001600160a01b03169052565b506040830151816040860152611f1e82860182611eae565b91505060608301518482036060860152611f388282611eae565b9150506080830151608085015260a083015160a085015260c083015160c085015260e083015160e085015261010080840151611f778287018215159052565b50506101208381015115159085015261014092830151151592909301919091525090565b600060208083016020845280855180835260408601915060408160051b87010192506020870160005b82811015611ff257603f19888603018452611fe0858351611eda565b94509285019290850190600101611fc4565b5092979650505050505050565b6000806040838503121561201257600080fd5b82359150611d7260208401611d1a565b602081526000611b446020830184611eda565b801515811461098357600080fd5b6000806040838503121561205657600080fd5b82359150602083013561206881612035565b809150509250929050565b634e487b7160e01b600052601160045260246000fd5b808201808211156114a5576114a5612073565b818103818111156114a5576114a5612073565b80820281158282048414176114a5576114a5612073565b6000826120e357634e487b7160e01b600052601260045260246000fd5b500490565b6000600182016120fa576120fa612073565b5060010190565b634e487b7160e01b600052604160045260246000fd5b600181811c9082168061212b57607f821691505b60208210810361067a57634e487b7160e01b600052602260045260246000fd5b601f82111561199f576000816000526020600020601f850160051c810160208610156121745750805b601f850160051c820191505b8181101561219357828155600101612180565b505050505050565b815167ffffffffffffffff8111156121b5576121b5612101565b6121c9816121c38454612117565b8461214b565b602080601f8311600181146121fe57600084156121e65750858301515b600019600386901b1c1916600185901b178555612193565b600085815260208120601f198616915b8281101561222d5788860151825594840194600190910190840161220e565b508582101561224b5787850151600019600388901b60f8161c191681555b5050505050600190811b01905550565b634e487b7160e01b600052603260045260246000fd5b60006020828403121561228357600080fd5b8151611b4481612035565b600082516122a0818460208701611e8a565b919091019291505056fea26469706673582212200193a92cf53cc7bf7def53adfc51ea493114fa45c3f14e5a02958145b6006a7a64736f6c63430008180033","linkReferences":{}},"methodIdentifiers":{"MAX_PLATFORM_FEE_BPS()":"8d01513c","allowToken(address,uint16)":"18873b6f","cancelProject(uint256)":"24941147","computeClaimable(uint256)":"0da17ee2","createProject(address,string,string,uint256,uint256)":"5d43fa45","feeVault()":"478222c2","fundProject(uint256,uint256)":"01cda5a4","getContribution(uint256,address)":"e081dbf9","getProject(uint256)":"f0f3f2c8","getProjects(uint256,uint256)":"a84ce2b5","owner()":"8da5cb5b","pause()":"8456cb59","paused()":"5c975abb","platformFeeBps()":"22dcd13e","projectCount()":"36fbad26","refund(uint256)":"278ecde1","removeToken(address)":"5fa7b584","renounceOwnership()":"715018a6","setPlatformFee(uint16)":"5cbc742c","toggleProjectPause(uint256,bool)":"f60eed84","tokenConfigs(address)":"1b69dc5f","transferOwnership(address)":"f2fde38b","unpause()":"3f4ba83a","withdrawFunds(uint256)":"155dd5ee"},"id":30}